{
  "_format": "hh-sol-artifact-1",
  "contractName": "NFTStaking",
  "sourceName": "contracts/NFTStaking.sol",
  "abi": [
    {
      "inputs": [
        {
          "internalType": "contract ERC721Enumerable",
          "name": "_nft",
          "type": "address"
        },
        {
          "internalType": "contract SimpleToken",
          "name": "_token",
          "type": "address"
        }
      ],
      "stateMutability": "nonpayable",
      "type": "constructor"
    },
    {
      "anonymous": false,
      "inputs": [
        {
          "indexed": false,
          "internalType": "address",
          "name": "owner",
          "type": "address"
        },
        {
          "indexed": false,
          "internalType": "uint256",
          "name": "amount",
          "type": "uint256"
        }
      ],
      "name": "Claimed",
      "type": "event"
    },
    {
      "anonymous": false,
      "inputs": [
        {
          "indexed": false,
          "internalType": "address",
          "name": "owner",
          "type": "address"
        },
        {
          "indexed": false,
          "internalType": "uint256",
          "name": "tokenId",
          "type": "uint256"
        },
        {
          "indexed": false,
          "internalType": "uint256",
          "name": "value",
          "type": "uint256"
        }
      ],
      "name": "NFTStaked",
      "type": "event"
    },
    {
      "anonymous": false,
      "inputs": [
        {
          "indexed": false,
          "internalType": "address",
          "name": "owner",
          "type": "address"
        },
        {
          "indexed": false,
          "internalType": "uint256",
          "name": "tokenId",
          "type": "uint256"
        },
        {
          "indexed": false,
          "internalType": "uint256",
          "name": "value",
          "type": "uint256"
        }
      ],
      "name": "NFTUnstaked",
      "type": "event"
    },
    {
      "anonymous": false,
      "inputs": [
        {
          "indexed": true,
          "internalType": "address",
          "name": "previousOwner",
          "type": "address"
        },
        {
          "indexed": true,
          "internalType": "address",
          "name": "newOwner",
          "type": "address"
        }
      ],
      "name": "OwnershipTransferred",
      "type": "event"
    },
    {
      "inputs": [
        {
          "internalType": "address",
          "name": "account",
          "type": "address"
        }
      ],
      "name": "balanceOf",
      "outputs": [
        {
          "internalType": "uint256",
          "name": "",
          "type": "uint256"
        }
      ],
      "stateMutability": "view",
      "type": "function"
    },
    {
      "inputs": [
        {
          "internalType": "uint256[]",
          "name": "tokenIds",
          "type": "uint256[]"
        }
      ],
      "name": "claim",
      "outputs": [],
      "stateMutability": "nonpayable",
      "type": "function"
    },
    {
      "inputs": [
        {
          "internalType": "address",
          "name": "account",
          "type": "address"
        },
        {
          "internalType": "uint256[]",
          "name": "tokenIds",
          "type": "uint256[]"
        }
      ],
      "name": "claimForAddress",
      "outputs": [],
      "stateMutability": "nonpayable",
      "type": "function"
    },
    {
      "inputs": [
        {
          "internalType": "address",
          "name": "account",
          "type": "address"
        },
        {
          "internalType": "uint256[]",
          "name": "tokenIds",
          "type": "uint256[]"
        }
      ],
      "name": "earningInfo",
      "outputs": [
        {
          "internalType": "uint256[1]",
          "name": "info",
          "type": "uint256[1]"
        }
      ],
      "stateMutability": "view",
      "type": "function"
    },
    {
      "inputs": [
        {
          "internalType": "address",
          "name": "",
          "type": "address"
        },
        {
          "internalType": "address",
          "name": "from",
          "type": "address"
        },
        {
          "internalType": "uint256",
          "name": "",
          "type": "uint256"
        },
        {
          "internalType": "bytes",
          "name": "",
          "type": "bytes"
        }
      ],
      "name": "onERC721Received",
      "outputs": [
        {
          "internalType": "bytes4",
          "name": "",
          "type": "bytes4"
        }
      ],
      "stateMutability": "pure",
      "type": "function"
    },
    {
      "inputs": [],
      "name": "owner",
      "outputs": [
        {
          "internalType": "address",
          "name": "",
          "type": "address"
        }
      ],
      "stateMutability": "view",
      "type": "function"
    },
    {
      "inputs": [],
      "name": "renounceOwnership",
      "outputs": [],
      "stateMutability": "nonpayable",
      "type": "function"
    },
    {
      "inputs": [
        {
          "internalType": "uint256[]",
          "name": "tokenIds",
          "type": "uint256[]"
        }
      ],
      "name": "stake",
      "outputs": [],
      "stateMutability": "nonpayable",
      "type": "function"
    },
    {
      "inputs": [
        {
          "internalType": "address",
          "name": "account",
          "type": "address"
        }
      ],
      "name": "tokensOfOwner",
      "outputs": [
        {
          "internalType": "uint256[]",
          "name": "ownerTokens",
          "type": "uint256[]"
        }
      ],
      "stateMutability": "view",
      "type": "function"
    },
    {
      "inputs": [],
      "name": "totalStaked",
      "outputs": [
        {
          "internalType": "uint256",
          "name": "",
          "type": "uint256"
        }
      ],
      "stateMutability": "view",
      "type": "function"
    },
    {
      "inputs": [
        {
          "internalType": "address",
          "name": "newOwner",
          "type": "address"
        }
      ],
      "name": "transferOwnership",
      "outputs": [],
      "stateMutability": "nonpayable",
      "type": "function"
    },
    {
      "inputs": [
        {
          "internalType": "uint256[]",
          "name": "tokenIds",
          "type": "uint256[]"
        }
      ],
      "name": "unstake",
      "outputs": [],
      "stateMutability": "nonpayable",
      "type": "function"
    },
    {
      "inputs": [
        {
          "internalType": "uint256",
          "name": "",
          "type": "uint256"
        }
      ],
      "name": "vault",
      "outputs": [
        {
          "internalType": "uint24",
          "name": "tokenId",
          "type": "uint24"
        },
        {
          "internalType": "uint48",
          "name": "timestamp",
          "type": "uint48"
        },
        {
          "internalType": "address",
          "name": "owner",
          "type": "address"
        }
      ],
      "stateMutability": "view",
      "type": "function"
    }
  ],
  "bytecode": "0x60806040523480156200001157600080fd5b506040516200241d3803806200241d833981810160405281019062000037919062000270565b620000576200004b620000e160201b60201c565b620000e960201b60201c565b81600260006101000a81548173ffffffffffffffffffffffffffffffffffffffff021916908373ffffffffffffffffffffffffffffffffffffffff16021790555080600360006101000a81548173ffffffffffffffffffffffffffffffffffffffff021916908373ffffffffffffffffffffffffffffffffffffffff1602179055505050620002b7565b600033905090565b60008060009054906101000a900473ffffffffffffffffffffffffffffffffffffffff169050816000806101000a81548173ffffffffffffffffffffffffffffffffffffffff021916908373ffffffffffffffffffffffffffffffffffffffff1602179055508173ffffffffffffffffffffffffffffffffffffffff168173ffffffffffffffffffffffffffffffffffffffff167f8be0079c531659141344cd1fd0a4f28419497f9722a3daafe3b4186f6b6457e060405160405180910390a35050565b600080fd5b600073ffffffffffffffffffffffffffffffffffffffff82169050919050565b6000620001df82620001b2565b9050919050565b6000620001f382620001d2565b9050919050565b6200020581620001e6565b81146200021157600080fd5b50565b6000815190506200022581620001fa565b92915050565b60006200023882620001d2565b9050919050565b6200024a816200022b565b81146200025657600080fd5b50565b6000815190506200026a816200023f565b92915050565b600080604083850312156200028a5762000289620001ad565b5b60006200029a8582860162000214565b9250506020620002ad8582860162000259565b9150509250929050565b61215680620002c76000396000f3fe608060405234801561001057600080fd5b50600436106100cf5760003560e01c8063817b1cd21161008c5780638da5cb5b116100665780638da5cb5b14610226578063c36be35714610244578063e449f34114610260578063f2fde38b1461027c576100cf565b8063817b1cd2146101a657806381a36fb6146101c45780638462151c146101f6576100cf565b80630fbf0a93146100d4578063150b7a02146100f05780636ba4c1381461012057806370a082311461013c578063715018a61461016c5780637e75dd6014610176575b600080fd5b6100ee60048036038101906100e99190611629565b610298565b005b61010a60048036038101906101059190611760565b610626565b6040516101179190611823565b60405180910390f35b61013a60048036038101906101359190611629565b6106a9565b005b6101566004803603810190610151919061183e565b6106ba565b604051610163919061187a565b60405180910390f35b6101746107fb565b005b610190600480360381019061018b9190611895565b61080f565b60405161019d91906119a0565b60405180910390f35b6101ae610a15565b6040516101bb919061187a565b60405180910390f35b6101de60048036038101906101d991906119bb565b610a1b565b6040516101ed93929190611a36565b60405180910390f35b610210600480360381019061020b919061183e565b610a86565b60405161021d9190611b04565b60405180910390f35b61022e610d02565b60405161023b9190611b26565b60405180910390f35b61025e60048036038101906102599190611895565b610d2b565b005b61027a60048036038101906102759190611629565b610d3d565b005b6102966004803603810190610291919061183e565b610d4e565b005b600082829050600160008282546102af9190611b70565b9250508190555060005b83839050811015610620578383828181106102d7576102d6611ba4565b5b9050602002013591503373ffffffffffffffffffffffffffffffffffffffff16600260009054906101000a900473ffffffffffffffffffffffffffffffffffffffff1673ffffffffffffffffffffffffffffffffffffffff16636352211e846040518263ffffffff1660e01b8152600401610352919061187a565b602060405180830381865afa15801561036f573d6000803e3d6000fd5b505050506040513d601f19601f820116820180604052508101906103939190611be8565b73ffffffffffffffffffffffffffffffffffffffff16146103e9576040517f08c379a00000000000000000000000000000000000000000000000000000000081526004016103e090611c72565b60405180910390fd5b60006004600084815260200190815260200160002060000160009054906101000a900462ffffff1662ffffff1614610456576040517f08c379a000000000000000000000000000000000000000000000000000000000815260040161044d90611cde565b60405180910390fd5b600260009054906101000a900473ffffffffffffffffffffffffffffffffffffffff1673ffffffffffffffffffffffffffffffffffffffff166323b872dd3330856040518463ffffffff1660e01b81526004016104b593929190611cfe565b600060405180830381600087803b1580156104cf57600080fd5b505af11580156104e3573d6000803e3d6000fd5b505050507f36b3725f1783bad4ff05b7f4c077c3aa68eeb23a4d054ba189db4d01ac278d3933834260405161051a93929190611d35565b60405180910390a160405180606001604052808362ffffff1681526020014265ffffffffffff1681526020013373ffffffffffffffffffffffffffffffffffffffff168152506004600084815260200190815260200160002060008201518160000160006101000a81548162ffffff021916908362ffffff16021790555060208201518160000160036101000a81548165ffffffffffff021916908365ffffffffffff16021790555060408201518160000160096101000a81548173ffffffffffffffffffffffffffffffffffffffff021916908373ffffffffffffffffffffffffffffffffffffffff160217905550905050808061061890611d6c565b9150506102b9565b50505050565b60008073ffffffffffffffffffffffffffffffffffffffff168573ffffffffffffffffffffffffffffffffffffffff1614610696576040517f08c379a000000000000000000000000000000000000000000000000000000000815260040161068d90611e26565b60405180910390fd5b63150b7a0260e01b905095945050505050565b6106b63383836000610dd1565b5050565b600080600090506000600260009054906101000a900473ffffffffffffffffffffffffffffffffffffffff1673ffffffffffffffffffffffffffffffffffffffff166318160ddd6040518163ffffffff1660e01b8152600401602060405180830381865afa158015610730573d6000803e3d6000fd5b505050506040513d601f19601f820116820180604052508101906107549190611e5b565b90506000600190505b8181116107f0578473ffffffffffffffffffffffffffffffffffffffff166004600083815260200190815260200160002060000160099054906101000a900473ffffffffffffffffffffffffffffffffffffffff1673ffffffffffffffffffffffffffffffffffffffff16036107dd576001836107da9190611b70565b92505b80806107e890611d6c565b91505061075d565b508192505050919050565b61080361117a565b61080d60006111f8565b565b610817611598565b600080600090506000805b868690508110156109e7578686828181106108405761083f611ba4565b5b9050602002013593506000600460008681526020019081526020016000206040518060600160405290816000820160009054906101000a900462ffffff1662ffffff1662ffffff1681526020016000820160039054906101000a900465ffffffffffff1665ffffffffffff1665ffffffffffff1681526020016000820160099054906101000a900473ffffffffffffffffffffffffffffffffffffffff1673ffffffffffffffffffffffffffffffffffffffff1673ffffffffffffffffffffffffffffffffffffffff168152505090508873ffffffffffffffffffffffffffffffffffffffff16816040015173ffffffffffffffffffffffffffffffffffffffff1614610982576040517f08c379a000000000000000000000000000000000000000000000000000000000815260040161097990611ed4565b60405180910390fd5b6000816020015165ffffffffffff1690506201518081426109a39190611ef4565b68056bc75e2d631000006109b79190611f28565b6109c19190611f99565b93506064846109d09190611f99565b9450505080806109df90611d6c565b915050610822565b506000821115610a0a576040518060200160405280838152509350505050610a0e565b5050505b9392505050565b60015481565b60046020528060005260406000206000915090508060000160009054906101000a900462ffffff16908060000160039054906101000a900465ffffffffffff16908060000160099054906101000a900473ffffffffffffffffffffffffffffffffffffffff16905083565b60606000600260009054906101000a900473ffffffffffffffffffffffffffffffffffffffff1673ffffffffffffffffffffffffffffffffffffffff166318160ddd6040518163ffffffff1660e01b8152600401602060405180830381865afa158015610af7573d6000803e3d6000fd5b505050506040513d601f19601f82011682018060405250810190610b1b9190611e5b565b905060008167ffffffffffffffff811115610b3957610b38611fca565b5b604051908082528060200260200182016040528015610b675781602001602082028036833780820191505090505b509050600080600190505b838111610c4f578573ffffffffffffffffffffffffffffffffffffffff166004600083815260200190815260200160002060000160099054906101000a900473ffffffffffffffffffffffffffffffffffffffff1673ffffffffffffffffffffffffffffffffffffffff1603610c3c576004600082815260200190815260200160002060000160009054906101000a900462ffffff1662ffffff16838381518110610c2057610c1f611ba4565b5b602002602001018181525050600182610c399190611b70565b91505b8080610c4790611d6c565b915050610b72565b5060008167ffffffffffffffff811115610c6c57610c6b611fca565b5b604051908082528060200260200182016040528015610c9a5781602001602082028036833780820191505090505b50905060005b82811015610cf557838181518110610cbb57610cba611ba4565b5b6020026020010151828281518110610cd657610cd5611ba4565b5b6020026020010181815250508080610ced90611d6c565b915050610ca0565b5080945050505050919050565b60008060009054906101000a900473ffffffffffffffffffffffffffffffffffffffff16905090565b610d388383836000610dd1565b505050565b610d4a3383836001610dd1565b5050565b610d5661117a565b600073ffffffffffffffffffffffffffffffffffffffff168173ffffffffffffffffffffffffffffffffffffffff1603610dc5576040517f08c379a0000000000000000000000000000000000000000000000000000000008152600401610dbc9061206b565b60405180910390fd5b610dce816111f8565b50565b600080600090506000805b8686905081101561108c57868682818110610dfa57610df9611ba4565b5b9050602002013593506000600460008681526020019081526020016000206040518060600160405290816000820160009054906101000a900462ffffff1662ffffff1662ffffff1681526020016000820160039054906101000a900465ffffffffffff1665ffffffffffff1665ffffffffffff1681526020016000820160099054906101000a900473ffffffffffffffffffffffffffffffffffffffff1673ffffffffffffffffffffffffffffffffffffffff1673ffffffffffffffffffffffffffffffffffffffff168152505090508873ffffffffffffffffffffffffffffffffffffffff16816040015173ffffffffffffffffffffffffffffffffffffffff1614610f3c576040517f08c379a0000000000000000000000000000000000000000000000000000000008152600401610f3390611ed4565b60405180910390fd5b6000816020015165ffffffffffff169050620151808142610f5d9190611ef4565b68056bc75e2d63100000610f719190611f28565b610f7b9190611f99565b9350606484610f8a9190611f99565b945060405180606001604052808762ffffff1681526020014265ffffffffffff1681526020018b73ffffffffffffffffffffffffffffffffffffffff168152506004600088815260200190815260200160002060008201518160000160006101000a81548162ffffff021916908362ffffff16021790555060208201518160000160036101000a81548165ffffffffffff021916908365ffffffffffff16021790555060408201518160000160096101000a81548173ffffffffffffffffffffffffffffffffffffffff021916908373ffffffffffffffffffffffffffffffffffffffff1602179055509050505050808061108490611d6c565b915050610ddc565b50600082111561112657600360009054906101000a900473ffffffffffffffffffffffffffffffffffffffff1673ffffffffffffffffffffffffffffffffffffffff166340c10f1988846040518363ffffffff1660e01b81526004016110f392919061208b565b600060405180830381600087803b15801561110d57600080fd5b505af1158015611121573d6000803e3d6000fd5b505050505b8315611138576111378787876112bc565b5b7fd8138f8a3f377c5259ca548e70e4c2de94f129f5a11036a15b69513cba2b426a878360405161116992919061208b565b60405180910390a150505050505050565b611182611590565b73ffffffffffffffffffffffffffffffffffffffff166111a0610d02565b73ffffffffffffffffffffffffffffffffffffffff16146111f6576040517f08c379a00000000000000000000000000000000000000000000000000000000081526004016111ed90612100565b60405180910390fd5b565b60008060009054906101000a900473ffffffffffffffffffffffffffffffffffffffff169050816000806101000a81548173ffffffffffffffffffffffffffffffffffffffff021916908373ffffffffffffffffffffffffffffffffffffffff1602179055508173ffffffffffffffffffffffffffffffffffffffff168173ffffffffffffffffffffffffffffffffffffffff167f8be0079c531659141344cd1fd0a4f28419497f9722a3daafe3b4186f6b6457e060405160405180910390a35050565b600082829050600160008282546112d39190611ef4565b9250508190555060005b83839050811015611589578383828181106112fb576112fa611ba4565b5b9050602002013591506000600460008481526020019081526020016000206040518060600160405290816000820160009054906101000a900462ffffff1662ffffff1662ffffff1681526020016000820160039054906101000a900465ffffffffffff1665ffffffffffff1665ffffffffffff1681526020016000820160099054906101000a900473ffffffffffffffffffffffffffffffffffffffff1673ffffffffffffffffffffffffffffffffffffffff1673ffffffffffffffffffffffffffffffffffffffff168152505090503373ffffffffffffffffffffffffffffffffffffffff16816040015173ffffffffffffffffffffffffffffffffffffffff161461143d576040517f08c379a000000000000000000000000000000000000000000000000000000000815260040161143490611ed4565b60405180910390fd5b60046000848152602001908152602001600020600080820160006101000a81549062ffffff02191690556000820160036101000a81549065ffffffffffff02191690556000820160096101000a81549073ffffffffffffffffffffffffffffffffffffffff021916905550507fc486b9458a8637650d84d262414833a5a457bc91ae86b7da110386c8c3fa255b8684426040516114dc93929190611d35565b60405180910390a1600260009054906101000a900473ffffffffffffffffffffffffffffffffffffffff1673ffffffffffffffffffffffffffffffffffffffff166323b872dd3088866040518463ffffffff1660e01b815260040161154393929190611cfe565b600060405180830381600087803b15801561155d57600080fd5b505af1158015611571573d6000803e3d6000fd5b5050505050808061158190611d6c565b9150506112dd565b5050505050565b600033905090565b6040518060200160405280600190602082028036833780820191505090505090565b600080fd5b600080fd5b600080fd5b600080fd5b600080fd5b60008083601f8401126115e9576115e86115c4565b5b8235905067ffffffffffffffff811115611606576116056115c9565b5b602083019150836020820283011115611622576116216115ce565b5b9250929050565b600080602083850312156116405761163f6115ba565b5b600083013567ffffffffffffffff81111561165e5761165d6115bf565b5b61166a858286016115d3565b92509250509250929050565b600073ffffffffffffffffffffffffffffffffffffffff82169050919050565b60006116a182611676565b9050919050565b6116b181611696565b81146116bc57600080fd5b50565b6000813590506116ce816116a8565b92915050565b6000819050919050565b6116e7816116d4565b81146116f257600080fd5b50565b600081359050611704816116de565b92915050565b60008083601f8401126117205761171f6115c4565b5b8235905067ffffffffffffffff81111561173d5761173c6115c9565b5b602083019150836001820283011115611759576117586115ce565b5b9250929050565b60008060008060006080868803121561177c5761177b6115ba565b5b600061178a888289016116bf565b955050602061179b888289016116bf565b94505060406117ac888289016116f5565b935050606086013567ffffffffffffffff8111156117cd576117cc6115bf565b5b6117d98882890161170a565b92509250509295509295909350565b60007fffffffff0000000000000000000000000000000000000000000000000000000082169050919050565b61181d816117e8565b82525050565b60006020820190506118386000830184611814565b92915050565b600060208284031215611854576118536115ba565b5b6000611862848285016116bf565b91505092915050565b611874816116d4565b82525050565b600060208201905061188f600083018461186b565b92915050565b6000806000604084860312156118ae576118ad6115ba565b5b60006118bc868287016116bf565b935050602084013567ffffffffffffffff8111156118dd576118dc6115bf565b5b6118e9868287016115d3565b92509250509250925092565b600060019050919050565b600081905092915050565b6000819050919050565b61191e816116d4565b82525050565b60006119308383611915565b60208301905092915050565b6000602082019050919050565b611952816118f5565b61195c8184611900565b92506119678261190b565b8060005b8381101561199857815161197f8782611924565b965061198a8361193c565b92505060018101905061196b565b505050505050565b60006020820190506119b56000830184611949565b92915050565b6000602082840312156119d1576119d06115ba565b5b60006119df848285016116f5565b91505092915050565b600062ffffff82169050919050565b611a00816119e8565b82525050565b600065ffffffffffff82169050919050565b611a2181611a06565b82525050565b611a3081611696565b82525050565b6000606082019050611a4b60008301866119f7565b611a586020830185611a18565b611a656040830184611a27565b949350505050565b600081519050919050565b600082825260208201905092915050565b6000819050602082019050919050565b6000602082019050919050565b6000611ab182611a6d565b611abb8185611a78565b9350611ac683611a89565b8060005b83811015611af7578151611ade8882611924565b9750611ae983611a99565b925050600181019050611aca565b5085935050505092915050565b60006020820190508181036000830152611b1e8184611aa6565b905092915050565b6000602082019050611b3b6000830184611a27565b92915050565b7f4e487b7100000000000000000000000000000000000000000000000000000000600052601160045260246000fd5b6000611b7b826116d4565b9150611b86836116d4565b9250828201905080821115611b9e57611b9d611b41565b5b92915050565b7f4e487b7100000000000000000000000000000000000000000000000000000000600052603260045260246000fd5b600081519050611be2816116a8565b92915050565b600060208284031215611bfe57611bfd6115ba565b5b6000611c0c84828501611bd3565b91505092915050565b600082825260208201905092915050565b7f6e6f7420796f757220746f6b656e000000000000000000000000000000000000600082015250565b6000611c5c600e83611c15565b9150611c6782611c26565b602082019050919050565b60006020820190508181036000830152611c8b81611c4f565b9050919050565b7f616c7265616479207374616b6564000000000000000000000000000000000000600082015250565b6000611cc8600e83611c15565b9150611cd382611c92565b602082019050919050565b60006020820190508181036000830152611cf781611cbb565b9050919050565b6000606082019050611d136000830186611a27565b611d206020830185611a27565b611d2d604083018461186b565b949350505050565b6000606082019050611d4a6000830186611a27565b611d57602083018561186b565b611d64604083018461186b565b949350505050565b6000611d77826116d4565b91507fffffffffffffffffffffffffffffffffffffffffffffffffffffffffffffffff8203611da957611da8611b41565b5b600182019050919050565b7f43616e6e6f742073656e64206e66747320746f205661756c742064697265637460008201527f6c79000000000000000000000000000000000000000000000000000000000000602082015250565b6000611e10602283611c15565b9150611e1b82611db4565b604082019050919050565b60006020820190508181036000830152611e3f81611e03565b9050919050565b600081519050611e55816116de565b92915050565b600060208284031215611e7157611e706115ba565b5b6000611e7f84828501611e46565b91505092915050565b7f6e6f7420616e206f776e65720000000000000000000000000000000000000000600082015250565b6000611ebe600c83611c15565b9150611ec982611e88565b602082019050919050565b60006020820190508181036000830152611eed81611eb1565b9050919050565b6000611eff826116d4565b9150611f0a836116d4565b9250828203905081811115611f2257611f21611b41565b5b92915050565b6000611f33826116d4565b9150611f3e836116d4565b9250828202611f4c816116d4565b91508282048414831517611f6357611f62611b41565b5b5092915050565b7f4e487b7100000000000000000000000000000000000000000000000000000000600052601260045260246000fd5b6000611fa4826116d4565b9150611faf836116d4565b925082611fbf57611fbe611f6a565b5b828204905092915050565b7f4e487b7100000000000000000000000000000000000000000000000000000000600052604160045260246000fd5b7f4f776e61626c653a206e6577206f776e657220697320746865207a65726f206160008201527f6464726573730000000000000000000000000000000000000000000000000000602082015250565b6000612055602683611c15565b915061206082611ff9565b604082019050919050565b6000602082019050818103600083015261208481612048565b9050919050565b60006040820190506120a06000830185611a27565b6120ad602083018461186b565b9392505050565b7f4f776e61626c653a2063616c6c6572206973206e6f7420746865206f776e6572600082015250565b60006120ea602083611c15565b91506120f5826120b4565b602082019050919050565b60006020820190508181036000830152612119816120dd565b905091905056fea2646970667358221220c4a301e7cdc9c2279266df6e82836bf38253bf49d00e9972ff4753a82e4daf9a64736f6c63430008110033",
  "linkReferences": {},
  "deployedLinkReferences": {}
}