{
  "_format": "hh-sol-artifact-1",
  "contractName": "SimpleNFT",
  "sourceName": "contracts/SimpleNFT.sol",
  "abi": [
    {
      "inputs": [],
      "stateMutability": "nonpayable",
      "type": "constructor"
    },
    {
      "anonymous": false,
      "inputs": [
        {
          "indexed": true,
          "internalType": "address",
          "name": "owner",
          "type": "address"
        },
        {
          "indexed": true,
          "internalType": "address",
          "name": "approved",
          "type": "address"
        },
        {
          "indexed": true,
          "internalType": "uint256",
          "name": "tokenId",
          "type": "uint256"
        }
      ],
      "name": "Approval",
      "type": "event"
    },
    {
      "anonymous": false,
      "inputs": [
        {
          "indexed": true,
          "internalType": "address",
          "name": "owner",
          "type": "address"
        },
        {
          "indexed": true,
          "internalType": "address",
          "name": "operator",
          "type": "address"
        },
        {
          "indexed": false,
          "internalType": "bool",
          "name": "approved",
          "type": "bool"
        }
      ],
      "name": "ApprovalForAll",
      "type": "event"
    },
    {
      "anonymous": false,
      "inputs": [
        {
          "indexed": true,
          "internalType": "address",
          "name": "previousOwner",
          "type": "address"
        },
        {
          "indexed": true,
          "internalType": "address",
          "name": "newOwner",
          "type": "address"
        }
      ],
      "name": "OwnershipTransferred",
      "type": "event"
    },
    {
      "anonymous": false,
      "inputs": [
        {
          "indexed": true,
          "internalType": "address",
          "name": "from",
          "type": "address"
        },
        {
          "indexed": true,
          "internalType": "address",
          "name": "to",
          "type": "address"
        },
        {
          "indexed": true,
          "internalType": "uint256",
          "name": "tokenId",
          "type": "uint256"
        }
      ],
      "name": "Transfer",
      "type": "event"
    },
    {
      "inputs": [],
      "name": "MAX_TOKENS",
      "outputs": [
        {
          "internalType": "uint256",
          "name": "",
          "type": "uint256"
        }
      ],
      "stateMutability": "view",
      "type": "function"
    },
    {
      "inputs": [],
      "name": "NUMBER_RESERVED_TOKENS",
      "outputs": [
        {
          "internalType": "uint256",
          "name": "",
          "type": "uint256"
        }
      ],
      "stateMutability": "view",
      "type": "function"
    },
    {
      "inputs": [],
      "name": "PRESALE_LIMIT",
      "outputs": [
        {
          "internalType": "uint256",
          "name": "",
          "type": "uint256"
        }
      ],
      "stateMutability": "view",
      "type": "function"
    },
    {
      "inputs": [],
      "name": "PRICE",
      "outputs": [
        {
          "internalType": "uint256",
          "name": "",
          "type": "uint256"
        }
      ],
      "stateMutability": "view",
      "type": "function"
    },
    {
      "inputs": [
        {
          "internalType": "address",
          "name": "",
          "type": "address"
        }
      ],
      "name": "addressMintedBalance",
      "outputs": [
        {
          "internalType": "uint256",
          "name": "",
          "type": "uint256"
        }
      ],
      "stateMutability": "view",
      "type": "function"
    },
    {
      "inputs": [
        {
          "internalType": "address",
          "name": "to",
          "type": "address"
        },
        {
          "internalType": "uint256",
          "name": "tokenId",
          "type": "uint256"
        }
      ],
      "name": "approve",
      "outputs": [],
      "stateMutability": "nonpayable",
      "type": "function"
    },
    {
      "inputs": [
        {
          "internalType": "address",
          "name": "owner",
          "type": "address"
        }
      ],
      "name": "balanceOf",
      "outputs": [
        {
          "internalType": "uint256",
          "name": "",
          "type": "uint256"
        }
      ],
      "stateMutability": "view",
      "type": "function"
    },
    {
      "inputs": [],
      "name": "flipPreSaleState",
      "outputs": [],
      "stateMutability": "nonpayable",
      "type": "function"
    },
    {
      "inputs": [],
      "name": "flipSaleState",
      "outputs": [],
      "stateMutability": "nonpayable",
      "type": "function"
    },
    {
      "inputs": [],
      "name": "flipWhitelistingState",
      "outputs": [],
      "stateMutability": "nonpayable",
      "type": "function"
    },
    {
      "inputs": [
        {
          "internalType": "uint256",
          "name": "tokenId",
          "type": "uint256"
        }
      ],
      "name": "getApproved",
      "outputs": [
        {
          "internalType": "address",
          "name": "",
          "type": "address"
        }
      ],
      "stateMutability": "view",
      "type": "function"
    },
    {
      "inputs": [
        {
          "internalType": "address",
          "name": "owner",
          "type": "address"
        },
        {
          "internalType": "address",
          "name": "operator",
          "type": "address"
        }
      ],
      "name": "isApprovedForAll",
      "outputs": [
        {
          "internalType": "bool",
          "name": "",
          "type": "bool"
        }
      ],
      "stateMutability": "view",
      "type": "function"
    },
    {
      "inputs": [
        {
          "internalType": "address",
          "name": "to",
          "type": "address"
        },
        {
          "internalType": "uint256",
          "name": "amount",
          "type": "uint256"
        }
      ],
      "name": "mintReservedTokens",
      "outputs": [],
      "stateMutability": "nonpayable",
      "type": "function"
    },
    {
      "inputs": [
        {
          "internalType": "uint256",
          "name": "amount",
          "type": "uint256"
        },
        {
          "internalType": "bytes32[]",
          "name": "proof",
          "type": "bytes32[]"
        }
      ],
      "name": "mintToken",
      "outputs": [],
      "stateMutability": "payable",
      "type": "function"
    },
    {
      "inputs": [],
      "name": "name",
      "outputs": [
        {
          "internalType": "string",
          "name": "",
          "type": "string"
        }
      ],
      "stateMutability": "view",
      "type": "function"
    },
    {
      "inputs": [],
      "name": "notRevealedUri",
      "outputs": [
        {
          "internalType": "string",
          "name": "",
          "type": "string"
        }
      ],
      "stateMutability": "view",
      "type": "function"
    },
    {
      "inputs": [],
      "name": "owner",
      "outputs": [
        {
          "internalType": "address",
          "name": "",
          "type": "address"
        }
      ],
      "stateMutability": "view",
      "type": "function"
    },
    {
      "inputs": [
        {
          "internalType": "uint256",
          "name": "tokenId",
          "type": "uint256"
        }
      ],
      "name": "ownerOf",
      "outputs": [
        {
          "internalType": "address",
          "name": "",
          "type": "address"
        }
      ],
      "stateMutability": "view",
      "type": "function"
    },
    {
      "inputs": [],
      "name": "perAddressLimit",
      "outputs": [
        {
          "internalType": "uint256",
          "name": "",
          "type": "uint256"
        }
      ],
      "stateMutability": "view",
      "type": "function"
    },
    {
      "inputs": [],
      "name": "preSaleIsActive",
      "outputs": [
        {
          "internalType": "bool",
          "name": "",
          "type": "bool"
        }
      ],
      "stateMutability": "view",
      "type": "function"
    },
    {
      "inputs": [],
      "name": "presaleTokensSold",
      "outputs": [
        {
          "internalType": "uint256",
          "name": "",
          "type": "uint256"
        }
      ],
      "stateMutability": "view",
      "type": "function"
    },
    {
      "inputs": [],
      "name": "renounceOwnership",
      "outputs": [],
      "stateMutability": "nonpayable",
      "type": "function"
    },
    {
      "inputs": [],
      "name": "reservedTokensMinted",
      "outputs": [
        {
          "internalType": "uint256",
          "name": "",
          "type": "uint256"
        }
      ],
      "stateMutability": "view",
      "type": "function"
    },
    {
      "inputs": [],
      "name": "reveal",
      "outputs": [],
      "stateMutability": "nonpayable",
      "type": "function"
    },
    {
      "inputs": [],
      "name": "revealed",
      "outputs": [
        {
          "internalType": "bool",
          "name": "",
          "type": "bool"
        }
      ],
      "stateMutability": "view",
      "type": "function"
    },
    {
      "inputs": [
        {
          "internalType": "address",
          "name": "from",
          "type": "address"
        },
        {
          "internalType": "address",
          "name": "to",
          "type": "address"
        },
        {
          "internalType": "uint256",
          "name": "tokenId",
          "type": "uint256"
        }
      ],
      "name": "safeTransferFrom",
      "outputs": [],
      "stateMutability": "nonpayable",
      "type": "function"
    },
    {
      "inputs": [
        {
          "internalType": "address",
          "name": "from",
          "type": "address"
        },
        {
          "internalType": "address",
          "name": "to",
          "type": "address"
        },
        {
          "internalType": "uint256",
          "name": "tokenId",
          "type": "uint256"
        },
        {
          "internalType": "bytes",
          "name": "_data",
          "type": "bytes"
        }
      ],
      "name": "safeTransferFrom",
      "outputs": [],
      "stateMutability": "nonpayable",
      "type": "function"
    },
    {
      "inputs": [],
      "name": "saleIsActive",
      "outputs": [
        {
          "internalType": "bool",
          "name": "",
          "type": "bool"
        }
      ],
      "stateMutability": "view",
      "type": "function"
    },
    {
      "inputs": [
        {
          "internalType": "address",
          "name": "operator",
          "type": "address"
        },
        {
          "internalType": "bool",
          "name": "approved",
          "type": "bool"
        }
      ],
      "name": "setApprovalForAll",
      "outputs": [],
      "stateMutability": "nonpayable",
      "type": "function"
    },
    {
      "inputs": [
        {
          "internalType": "string",
          "name": "baseURI",
          "type": "string"
        }
      ],
      "name": "setBaseURI",
      "outputs": [],
      "stateMutability": "nonpayable",
      "type": "function"
    },
    {
      "inputs": [
        {
          "internalType": "string",
          "name": "_notRevealedURI",
          "type": "string"
        }
      ],
      "name": "setNotRevealedURI",
      "outputs": [],
      "stateMutability": "nonpayable",
      "type": "function"
    },
    {
      "inputs": [
        {
          "internalType": "uint256",
          "name": "newLimit",
          "type": "uint256"
        }
      ],
      "name": "setPerAddressLimit",
      "outputs": [],
      "stateMutability": "nonpayable",
      "type": "function"
    },
    {
      "inputs": [
        {
          "internalType": "uint256",
          "name": "newLimit",
          "type": "uint256"
        }
      ],
      "name": "setPresaleLimit",
      "outputs": [],
      "stateMutability": "nonpayable",
      "type": "function"
    },
    {
      "inputs": [
        {
          "internalType": "uint256",
          "name": "newPrice",
          "type": "uint256"
        }
      ],
      "name": "setPrice",
      "outputs": [],
      "stateMutability": "nonpayable",
      "type": "function"
    },
    {
      "inputs": [
        {
          "internalType": "bytes32",
          "name": "_root",
          "type": "bytes32"
        }
      ],
      "name": "setRoot",
      "outputs": [],
      "stateMutability": "nonpayable",
      "type": "function"
    },
    {
      "inputs": [
        {
          "internalType": "bytes4",
          "name": "interfaceId",
          "type": "bytes4"
        }
      ],
      "name": "supportsInterface",
      "outputs": [
        {
          "internalType": "bool",
          "name": "",
          "type": "bool"
        }
      ],
      "stateMutability": "view",
      "type": "function"
    },
    {
      "inputs": [],
      "name": "symbol",
      "outputs": [
        {
          "internalType": "string",
          "name": "",
          "type": "string"
        }
      ],
      "stateMutability": "view",
      "type": "function"
    },
    {
      "inputs": [
        {
          "internalType": "uint256",
          "name": "index",
          "type": "uint256"
        }
      ],
      "name": "tokenByIndex",
      "outputs": [
        {
          "internalType": "uint256",
          "name": "",
          "type": "uint256"
        }
      ],
      "stateMutability": "view",
      "type": "function"
    },
    {
      "inputs": [
        {
          "internalType": "address",
          "name": "owner",
          "type": "address"
        },
        {
          "internalType": "uint256",
          "name": "index",
          "type": "uint256"
        }
      ],
      "name": "tokenOfOwnerByIndex",
      "outputs": [
        {
          "internalType": "uint256",
          "name": "",
          "type": "uint256"
        }
      ],
      "stateMutability": "view",
      "type": "function"
    },
    {
      "inputs": [
        {
          "internalType": "uint256",
          "name": "tokenId",
          "type": "uint256"
        }
      ],
      "name": "tokenURI",
      "outputs": [
        {
          "internalType": "string",
          "name": "",
          "type": "string"
        }
      ],
      "stateMutability": "view",
      "type": "function"
    },
    {
      "inputs": [],
      "name": "totalSupply",
      "outputs": [
        {
          "internalType": "uint256",
          "name": "",
          "type": "uint256"
        }
      ],
      "stateMutability": "view",
      "type": "function"
    },
    {
      "inputs": [
        {
          "internalType": "address",
          "name": "from",
          "type": "address"
        },
        {
          "internalType": "address",
          "name": "to",
          "type": "address"
        },
        {
          "internalType": "uint256",
          "name": "tokenId",
          "type": "uint256"
        }
      ],
      "name": "transferFrom",
      "outputs": [],
      "stateMutability": "nonpayable",
      "type": "function"
    },
    {
      "inputs": [
        {
          "internalType": "address",
          "name": "newOwner",
          "type": "address"
        }
      ],
      "name": "transferOwnership",
      "outputs": [],
      "stateMutability": "nonpayable",
      "type": "function"
    },
    {
      "inputs": [
        {
          "internalType": "address",
          "name": "_owner",
          "type": "address"
        }
      ],
      "name": "walletOfOwner",
      "outputs": [
        {
          "internalType": "uint256[]",
          "name": "",
          "type": "uint256[]"
        }
      ],
      "stateMutability": "view",
      "type": "function"
    },
    {
      "inputs": [],
      "name": "whitelist",
      "outputs": [
        {
          "internalType": "bool",
          "name": "",
          "type": "bool"
        }
      ],
      "stateMutability": "view",
      "type": "function"
    },
    {
      "inputs": [],
      "name": "withdraw",
      "outputs": [],
      "stateMutability": "nonpayable",
      "type": "function"
    }
  ],
  "bytecode": "0x6080604052600a600b556000600c55655af3107a4000600d556002600e556000600f60006101000a81548160ff0219169083151502179055506000600f60016101000a81548160ff0219169083151502179055506000600f60026101000a81548160ff0219169083151502179055506000600f60036101000a81548160ff021916908315150217905550600060105573721a6d070fb83ff8ab581d011467c1ccb6f4f399601560006101000a81548173ffffffffffffffffffffffffffffffffffffffff021916908373ffffffffffffffffffffffffffffffffffffffff160217905550348015620000f057600080fd5b506040518060400160405280600b81526020017f447261676f6e20466972650000000000000000000000000000000000000000008152506040518060400160405280600381526020017f444645000000000000000000000000000000000000000000000000000000000081525081600090816200016e9190620004f1565b508060019081620001809190620004f1565b505050620001a362000197620001a960201b60201c565b620001b160201b60201c565b620005d8565b600033905090565b6000600a60009054906101000a900473ffffffffffffffffffffffffffffffffffffffff16905081600a60006101000a81548173ffffffffffffffffffffffffffffffffffffffff021916908373ffffffffffffffffffffffffffffffffffffffff1602179055508173ffffffffffffffffffffffffffffffffffffffff168173ffffffffffffffffffffffffffffffffffffffff167f8be0079c531659141344cd1fd0a4f28419497f9722a3daafe3b4186f6b6457e060405160405180910390a35050565b600081519050919050565b7f4e487b7100000000000000000000000000000000000000000000000000000000600052604160045260246000fd5b7f4e487b7100000000000000000000000000000000000000000000000000000000600052602260045260246000fd5b60006002820490506001821680620002f957607f821691505b6020821081036200030f576200030e620002b1565b5b50919050565b60008190508160005260206000209050919050565b60006020601f8301049050919050565b600082821b905092915050565b600060088302620003797fffffffffffffffffffffffffffffffffffffffffffffffffffffffffffffffff826200033a565b6200038586836200033a565b95508019841693508086168417925050509392505050565b6000819050919050565b6000819050919050565b6000620003d2620003cc620003c6846200039d565b620003a7565b6200039d565b9050919050565b6000819050919050565b620003ee83620003b1565b62000406620003fd82620003d9565b84845462000347565b825550505050565b600090565b6200041d6200040e565b6200042a818484620003e3565b505050565b5b8181101562000452576200044660008262000413565b60018101905062000430565b5050565b601f821115620004a1576200046b8162000315565b62000476846200032a565b8101602085101562000486578190505b6200049e62000495856200032a565b8301826200042f565b50505b505050565b600082821c905092915050565b6000620004c660001984600802620004a6565b1980831691505092915050565b6000620004e18383620004b3565b9150826002028217905092915050565b620004fc8262000277565b67ffffffffffffffff81111562000518576200051762000282565b5b620005248254620002e0565b6200053182828562000456565b600060209050601f83116001811462000569576000841562000554578287015190505b620005608582620004d3565b865550620005d0565b601f198416620005798662000315565b60005b82811015620005a3578489015182556001820191506020850194506020810190506200057c565b86831015620005c35784890151620005bf601f891682620004b3565b8355505b6001600288020188555050505b505050505050565b6156eb80620005e86000396000f3fe60806040526004361061027d5760003560e01c806370a082311161014f578063ae7c122e116100c1578063eb8d24441161007a578063eb8d244414610965578063f032554914610990578063f2c4ce1e146109a7578063f2fde38b146109d0578063f3e38821146109f9578063f47c84c514610a245761027d565b8063ae7c122e14610852578063b22edfbc1461086e578063b88d4fde14610899578063c87b56dd146108c2578063dab5f340146108ff578063e985e9c5146109285761027d565b806391b7f5ed1161011357806391b7f5ed1461077c57806393e59dc1146107a557806395d89b41146107d0578063969a55ec146107fb578063a22cb46514610812578063a475b5dd1461083b5761027d565b806370a08231146106a9578063715018a6146106e65780637fd255f1146106fd5780638d859f3e146107265780638da5cb5b146107515761027d565b80632f745c59116101f35780634f6ccce7116101ac5780634f6ccce71461058757806351830227146105c457806355f804b3146105ef57806357535c43146106185780636007eeed146106415780636352211e1461066c5761027d565b80632f745c591461048b578063341c3304146104c857806334918dfd146104f35780633ccfd60b1461050a57806342842e0e14610521578063438b63001461054a5761027d565b806318160ddd1161024557806318160ddd1461037b57806318cae269146103a65780631aee3f91146103e35780631f0234d81461040e57806323b872dd1461043957806329f767e8146104625761027d565b806301ffc9a71461028257806306fdde03146102bf578063081812fc146102ea578063081c8c4414610327578063095ea7b314610352575b600080fd5b34801561028e57600080fd5b506102a960048036038101906102a49190613832565b610a4f565b6040516102b6919061387a565b60405180910390f35b3480156102cb57600080fd5b506102d4610a61565b6040516102e19190613925565b60405180910390f35b3480156102f657600080fd5b50610311600480360381019061030c919061397d565b610af3565b60405161031e91906139eb565b60405180910390f35b34801561033357600080fd5b5061033c610b78565b6040516103499190613925565b60405180910390f35b34801561035e57600080fd5b5061037960048036038101906103749190613a32565b610c06565b005b34801561038757600080fd5b50610390610d1d565b60405161039d9190613a81565b60405180910390f35b3480156103b257600080fd5b506103cd60048036038101906103c89190613a9c565b610d2a565b6040516103da9190613a81565b60405180910390f35b3480156103ef57600080fd5b506103f8610d42565b6040516104059190613a81565b60405180910390f35b34801561041a57600080fd5b50610423610d48565b604051610430919061387a565b60405180910390f35b34801561044557600080fd5b50610460600480360381019061045b9190613ac9565b610d5b565b005b34801561046e57600080fd5b506104896004803603810190610484919061397d565b610dbb565b005b34801561049757600080fd5b506104b260048036038101906104ad9190613a32565b610e41565b6040516104bf9190613a81565b60405180910390f35b3480156104d457600080fd5b506104dd610ee6565b6040516104ea9190613a81565b60405180910390f35b3480156104ff57600080fd5b50610508610eec565b005b34801561051657600080fd5b5061051f610f94565b005b34801561052d57600080fd5b5061054860048036038101906105439190613ac9565b6111fe565b005b34801561055657600080fd5b50610571600480360381019061056c9190613a9c565b61121e565b60405161057e9190613bda565b60405180910390f35b34801561059357600080fd5b506105ae60048036038101906105a9919061397d565b6112cc565b6040516105bb9190613a81565b60405180910390f35b3480156105d057600080fd5b506105d961133d565b6040516105e6919061387a565b60405180910390f35b3480156105fb57600080fd5b5061061660048036038101906106119190613d31565b611350565b005b34801561062457600080fd5b5061063f600480360381019061063a9190613a32565b6113d8565b005b34801561064d57600080fd5b506106566114fd565b6040516106639190613a81565b60405180910390f35b34801561067857600080fd5b50610693600480360381019061068e919061397d565b611503565b6040516106a091906139eb565b60405180910390f35b3480156106b557600080fd5b506106d060048036038101906106cb9190613a9c565b6115b4565b6040516106dd9190613a81565b60405180910390f35b3480156106f257600080fd5b506106fb61166b565b005b34801561070957600080fd5b50610724600480360381019061071f919061397d565b6116f3565b005b34801561073257600080fd5b5061073b611779565b6040516107489190613a81565b60405180910390f35b34801561075d57600080fd5b5061076661177f565b60405161077391906139eb565b60405180910390f35b34801561078857600080fd5b506107a3600480360381019061079e919061397d565b6117a9565b005b3480156107b157600080fd5b506107ba61182f565b6040516107c7919061387a565b60405180910390f35b3480156107dc57600080fd5b506107e5611842565b6040516107f29190613925565b60405180910390f35b34801561080757600080fd5b506108106118d4565b005b34801561081e57600080fd5b5061083960048036038101906108349190613da6565b61197c565b005b34801561084757600080fd5b50610850611992565b005b61086c60048036038101906108679190613ee4565b611a2b565b005b34801561087a57600080fd5b50610883611e2a565b6040516108909190613a81565b60405180910390f35b3480156108a557600080fd5b506108c060048036038101906108bb9190613fe1565b611e2f565b005b3480156108ce57600080fd5b506108e960048036038101906108e4919061397d565b611e91565b6040516108f69190613925565b60405180910390f35b34801561090b57600080fd5b5061092660048036038101906109219190614064565b611fdd565b005b34801561093457600080fd5b5061094f600480360381019061094a9190614091565b612063565b60405161095c919061387a565b60405180910390f35b34801561097157600080fd5b5061097a6120f7565b604051610987919061387a565b60405180910390f35b34801561099c57600080fd5b506109a561210a565b005b3480156109b357600080fd5b506109ce60048036038101906109c99190613d31565b6121b2565b005b3480156109dc57600080fd5b506109f760048036038101906109f29190613a9c565b612241565b005b348015610a0557600080fd5b50610a0e612338565b604051610a1b9190613a81565b60405180910390f35b348015610a3057600080fd5b50610a3961233e565b604051610a469190613a81565b60405180910390f35b6000610a5a82612343565b9050919050565b606060008054610a7090614100565b80601f0160208091040260200160405190810160405280929190818152602001828054610a9c90614100565b8015610ae95780601f10610abe57610100808354040283529160200191610ae9565b820191906000526020600020905b815481529060010190602001808311610acc57829003601f168201915b5050505050905090565b6000610afe826123bd565b610b3d576040517f08c379a0000000000000000000000000000000000000000000000000000000008152600401610b34906141a3565b60405180910390fd5b6004600083815260200190815260200160002060009054906101000a900473ffffffffffffffffffffffffffffffffffffffff169050919050565b60128054610b8590614100565b80601f0160208091040260200160405190810160405280929190818152602001828054610bb190614100565b8015610bfe5780601f10610bd357610100808354040283529160200191610bfe565b820191906000526020600020905b815481529060010190602001808311610be157829003601f168201915b505050505081565b6000610c1182611503565b90508073ffffffffffffffffffffffffffffffffffffffff168373ffffffffffffffffffffffffffffffffffffffff1603610c81576040517f08c379a0000000000000000000000000000000000000000000000000000000008152600401610c7890614235565b60405180910390fd5b8073ffffffffffffffffffffffffffffffffffffffff16610ca0612429565b73ffffffffffffffffffffffffffffffffffffffff161480610ccf5750610cce81610cc9612429565b612063565b5b610d0e576040517f08c379a0000000000000000000000000000000000000000000000000000000008152600401610d05906142c7565b60405180910390fd5b610d188383612431565b505050565b6000600880549050905090565b60146020528060005260406000206000915090505481565b600b5481565b600f60019054906101000a900460ff1681565b610d6c610d66612429565b826124ea565b610dab576040517f08c379a0000000000000000000000000000000000000000000000000000000008152600401610da290614359565b60405180910390fd5b610db68383836125c8565b505050565b610dc3612429565b73ffffffffffffffffffffffffffffffffffffffff16610de161177f565b73ffffffffffffffffffffffffffffffffffffffff1614610e37576040517f08c379a0000000000000000000000000000000000000000000000000000000008152600401610e2e906143c5565b60405180910390fd5b80600e8190555050565b6000610e4c836115b4565b8210610e8d576040517f08c379a0000000000000000000000000000000000000000000000000000000008152600401610e8490614457565b60405180910390fd5b600660008473ffffffffffffffffffffffffffffffffffffffff1673ffffffffffffffffffffffffffffffffffffffff168152602001908152602001600020600083815260200190815260200160002054905092915050565b600c5481565b610ef4612429565b73ffffffffffffffffffffffffffffffffffffffff16610f1261177f565b73ffffffffffffffffffffffffffffffffffffffff1614610f68576040517f08c379a0000000000000000000000000000000000000000000000000000000008152600401610f5f906143c5565b60405180910390fd5b600f60009054906101000a900460ff1615600f60006101000a81548160ff021916908315150217905550565b601560009054906101000a900473ffffffffffffffffffffffffffffffffffffffff1673ffffffffffffffffffffffffffffffffffffffff163373ffffffffffffffffffffffffffffffffffffffff1614806110225750610ff361177f565b73ffffffffffffffffffffffffffffffffffffffff163373ffffffffffffffffffffffffffffffffffffffff16145b611061576040517f08c379a0000000000000000000000000000000000000000000000000000000008152600401611058906144c3565b60405180910390fd5b6000601560009054906101000a900473ffffffffffffffffffffffffffffffffffffffff1673ffffffffffffffffffffffffffffffffffffffff1660196064476110ab9190614541565b6110b59190614572565b6040516110c1906145e5565b60006040518083038185875af1925050503d80600081146110fe576040519150601f19603f3d011682016040523d82523d6000602084013e611103565b606091505b50509050600061111161177f565b73ffffffffffffffffffffffffffffffffffffffff1647604051611134906145e5565b60006040518083038185875af1925050503d8060008114611171576040519150601f19603f3d011682016040523d82523d6000602084013e611176565b606091505b50509050816111ba576040517f08c379a00000000000000000000000000000000000000000000000000000000081526004016111b190614646565b60405180910390fd5b806111fa576040517f08c379a00000000000000000000000000000000000000000000000000000000081526004016111f1906146b2565b60405180910390fd5b5050565b61121983838360405180602001604052806000815250611e2f565b505050565b6060600061122b836115b4565b905060008167ffffffffffffffff81111561124957611248613c06565b5b6040519080825280602002602001820160405280156112775781602001602082028036833780820191505090505b50905060005b828110156112c15761128f8582610e41565b8282815181106112a2576112a16146d2565b5b60200260200101818152505080806112b990614701565b91505061127d565b508092505050919050565b60006112d6610d1d565b8210611317576040517f08c379a000000000000000000000000000000000000000000000000000000000815260040161130e906147bb565b60405180910390fd5b6008828154811061132b5761132a6146d2565b5b90600052602060002001549050919050565b600f60039054906101000a900460ff1681565b611358612429565b73ffffffffffffffffffffffffffffffffffffffff1661137661177f565b73ffffffffffffffffffffffffffffffffffffffff16146113cc576040517f08c379a00000000000000000000000000000000000000000000000000000000081526004016113c3906143c5565b60405180910390fd5b6113d58161282e565b50565b6113e0612429565b73ffffffffffffffffffffffffffffffffffffffff166113fe61177f565b73ffffffffffffffffffffffffffffffffffffffff1614611454576040517f08c379a000000000000000000000000000000000000000000000000000000000815260040161144b906143c5565b60405180910390fd5b60038160105461146491906147db565b11156114a5576040517f08c379a000000000000000000000000000000000000000000000000000000000815260040161149c90614881565b60405180910390fd5b60005b818110156114f8576114cd8360016114be610d1d565b6114c891906147db565b612841565b601060008154809291906114e090614701565b919050555080806114f090614701565b9150506114a8565b505050565b600e5481565b6000806002600084815260200190815260200160002060009054906101000a900473ffffffffffffffffffffffffffffffffffffffff169050600073ffffffffffffffffffffffffffffffffffffffff168173ffffffffffffffffffffffffffffffffffffffff16036115ab576040517f08c379a00000000000000000000000000000000000000000000000000000000081526004016115a290614913565b60405180910390fd5b80915050919050565b60008073ffffffffffffffffffffffffffffffffffffffff168273ffffffffffffffffffffffffffffffffffffffff1603611624576040517f08c379a000000000000000000000000000000000000000000000000000000000815260040161161b906149a5565b60405180910390fd5b600360008373ffffffffffffffffffffffffffffffffffffffff1673ffffffffffffffffffffffffffffffffffffffff168152602001908152602001600020549050919050565b611673612429565b73ffffffffffffffffffffffffffffffffffffffff1661169161177f565b73ffffffffffffffffffffffffffffffffffffffff16146116e7576040517f08c379a00000000000000000000000000000000000000000000000000000000081526004016116de906143c5565b60405180910390fd5b6116f1600061285f565b565b6116fb612429565b73ffffffffffffffffffffffffffffffffffffffff1661171961177f565b73ffffffffffffffffffffffffffffffffffffffff161461176f576040517f08c379a0000000000000000000000000000000000000000000000000000000008152600401611766906143c5565b60405180910390fd5b80600b8190555050565b600d5481565b6000600a60009054906101000a900473ffffffffffffffffffffffffffffffffffffffff16905090565b6117b1612429565b73ffffffffffffffffffffffffffffffffffffffff166117cf61177f565b73ffffffffffffffffffffffffffffffffffffffff1614611825576040517f08c379a000000000000000000000000000000000000000000000000000000000815260040161181c906143c5565b60405180910390fd5b80600d8190555050565b600f60029054906101000a900460ff1681565b60606001805461185190614100565b80601f016020809104026020016040519081016040528092919081815260200182805461187d90614100565b80156118ca5780601f1061189f576101008083540402835291602001916118ca565b820191906000526020600020905b8154815290600101906020018083116118ad57829003601f168201915b5050505050905090565b6118dc612429565b73ffffffffffffffffffffffffffffffffffffffff166118fa61177f565b73ffffffffffffffffffffffffffffffffffffffff1614611950576040517f08c379a0000000000000000000000000000000000000000000000000000000008152600401611947906143c5565b60405180910390fd5b600f60029054906101000a900460ff1615600f60026101000a81548160ff021916908315150217905550565b61198e611987612429565b8383612925565b5050565b61199a612429565b73ffffffffffffffffffffffffffffffffffffffff166119b861177f565b73ffffffffffffffffffffffffffffffffffffffff1614611a0e576040517f08c379a0000000000000000000000000000000000000000000000000000000008152600401611a05906143c5565b60405180910390fd5b6001600f60036101000a81548160ff021916908315150217905550565b600f60029054906101000a900460ff161580611a4c5750611a4b81612a91565b5b611a8b576040517f08c379a0000000000000000000000000000000000000000000000000000000008152600401611a8290614a11565b60405180910390fd5b3273ffffffffffffffffffffffffffffffffffffffff163373ffffffffffffffffffffffffffffffffffffffff1614611af9576040517f08c379a0000000000000000000000000000000000000000000000000000000008152600401611af090614aa3565b60405180910390fd5b600f60019054906101000a900460ff1680611b205750600f60009054906101000a900460ff165b611b5f576040517f08c379a0000000000000000000000000000000000000000000000000000000008152600401611b5690614b0f565b60405180910390fd5b600082118015611b70575060028211155b611baf576040517f08c379a0000000000000000000000000000000000000000000000000000000008152600401611ba690614b7b565b60405180910390fd5b600f60019054906101000a900460ff161580611bda5750600b5482600c54611bd791906147db565b11155b611c19576040517f08c379a0000000000000000000000000000000000000000000000000000000008152600401611c1090614be7565b60405180910390fd5b6010546003611c289190614c07565b6014611c349190614c07565b82611c3d610d1d565b611c4791906147db565b1115611c88576040517f08c379a0000000000000000000000000000000000000000000000000000000008152600401611c7f90614be7565b60405180910390fd5b81600d54611c969190614572565b341015611cd8576040517f08c379a0000000000000000000000000000000000000000000000000000000008152600401611ccf90614c87565b60405180910390fd5b600e5482601460003373ffffffffffffffffffffffffffffffffffffffff1673ffffffffffffffffffffffffffffffffffffffff16815260200190815260200160002054611d2691906147db565b1115611d67576040517f08c379a0000000000000000000000000000000000000000000000000000000008152600401611d5e90614cf3565b60405180910390fd5b60005b82811015611df757601460003373ffffffffffffffffffffffffffffffffffffffff1673ffffffffffffffffffffffffffffffffffffffff1681526020019081526020016000206000815480929190611dc290614701565b9190505550611de4336001611dd5610d1d565b611ddf91906147db565b612841565b8080611def90614701565b915050611d6a565b50600f60019054906101000a900460ff1615611e2657600c6000815480929190611e2090614701565b91905055505b5050565b600381565b611e40611e3a612429565b836124ea565b611e7f576040517f08c379a0000000000000000000000000000000000000000000000000000000008152600401611e7690614359565b60405180910390fd5b611e8b84848484612ad2565b50505050565b6060611e9c826123bd565b611edb576040517f08c379a0000000000000000000000000000000000000000000000000000000008152600401611ed290614d85565b60405180910390fd5b60001515600f60039054906101000a900460ff16151503611f885760128054611f0390614100565b80601f0160208091040260200160405190810160405280929190818152602001828054611f2f90614100565b8015611f7c5780601f10611f5157610100808354040283529160200191611f7c565b820191906000526020600020905b815481529060010190602001808311611f5f57829003601f168201915b50505050509050611fd8565b6000611f9383612b2e565b90506000815111611fb35760405180602001604052806000815250611fd4565b80604051602001611fc49190614e2d565b6040516020818303038152906040525b9150505b919050565b611fe5612429565b73ffffffffffffffffffffffffffffffffffffffff1661200361177f565b73ffffffffffffffffffffffffffffffffffffffff1614612059576040517f08c379a0000000000000000000000000000000000000000000000000000000008152600401612050906143c5565b60405180910390fd5b8060138190555050565b6000600560008473ffffffffffffffffffffffffffffffffffffffff1673ffffffffffffffffffffffffffffffffffffffff16815260200190815260200160002060008373ffffffffffffffffffffffffffffffffffffffff1673ffffffffffffffffffffffffffffffffffffffff16815260200190815260200160002060009054906101000a900460ff16905092915050565b600f60009054906101000a900460ff1681565b612112612429565b73ffffffffffffffffffffffffffffffffffffffff1661213061177f565b73ffffffffffffffffffffffffffffffffffffffff1614612186576040517f08c379a000000000000000000000000000000000000000000000000000000000815260040161217d906143c5565b60405180910390fd5b600f60019054906101000a900460ff1615600f60016101000a81548160ff021916908315150217905550565b6121ba612429565b73ffffffffffffffffffffffffffffffffffffffff166121d861177f565b73ffffffffffffffffffffffffffffffffffffffff161461222e576040517f08c379a0000000000000000000000000000000000000000000000000000000008152600401612225906143c5565b60405180910390fd5b806012908161223d9190614ffb565b5050565b612249612429565b73ffffffffffffffffffffffffffffffffffffffff1661226761177f565b73ffffffffffffffffffffffffffffffffffffffff16146122bd576040517f08c379a00000000000000000000000000000000000000000000000000000000081526004016122b4906143c5565b60405180910390fd5b600073ffffffffffffffffffffffffffffffffffffffff168173ffffffffffffffffffffffffffffffffffffffff160361232c576040517f08c379a00000000000000000000000000000000000000000000000000000000081526004016123239061513f565b60405180910390fd5b6123358161285f565b50565b60105481565b601481565b60007f780e9d63000000000000000000000000000000000000000000000000000000007bffffffffffffffffffffffffffffffffffffffffffffffffffffffff1916827bffffffffffffffffffffffffffffffffffffffffffffffffffffffff191614806123b657506123b582612bd5565b5b9050919050565b60008073ffffffffffffffffffffffffffffffffffffffff166002600084815260200190815260200160002060009054906101000a900473ffffffffffffffffffffffffffffffffffffffff1673ffffffffffffffffffffffffffffffffffffffff1614159050919050565b600033905090565b816004600083815260200190815260200160002060006101000a81548173ffffffffffffffffffffffffffffffffffffffff021916908373ffffffffffffffffffffffffffffffffffffffff160217905550808273ffffffffffffffffffffffffffffffffffffffff166124a483611503565b73ffffffffffffffffffffffffffffffffffffffff167f8c5be1e5ebec7d5bd14f71427d1e84f3dd0314c0f7b2291e5b200ac8c7c3b92560405160405180910390a45050565b60006124f5826123bd565b612534576040517f08c379a000000000000000000000000000000000000000000000000000000000815260040161252b906151d1565b60405180910390fd5b600061253f83611503565b90508073ffffffffffffffffffffffffffffffffffffffff168473ffffffffffffffffffffffffffffffffffffffff16148061258157506125808185612063565b5b806125bf57508373ffffffffffffffffffffffffffffffffffffffff166125a784610af3565b73ffffffffffffffffffffffffffffffffffffffff16145b91505092915050565b8273ffffffffffffffffffffffffffffffffffffffff166125e882611503565b73ffffffffffffffffffffffffffffffffffffffff161461263e576040517f08c379a000000000000000000000000000000000000000000000000000000000815260040161263590615263565b60405180910390fd5b600073ffffffffffffffffffffffffffffffffffffffff168273ffffffffffffffffffffffffffffffffffffffff16036126ad576040517f08c379a00000000000000000000000000000000000000000000000000000000081526004016126a4906152f5565b60405180910390fd5b6126b8838383612cb7565b6126c3600082612431565b6001600360008573ffffffffffffffffffffffffffffffffffffffff1673ffffffffffffffffffffffffffffffffffffffff16815260200190815260200160002060008282546127139190614c07565b925050819055506001600360008473ffffffffffffffffffffffffffffffffffffffff1673ffffffffffffffffffffffffffffffffffffffff168152602001908152602001600020600082825461276a91906147db565b92505081905550816002600083815260200190815260200160002060006101000a81548173ffffffffffffffffffffffffffffffffffffffff021916908373ffffffffffffffffffffffffffffffffffffffff160217905550808273ffffffffffffffffffffffffffffffffffffffff168473ffffffffffffffffffffffffffffffffffffffff167fddf252ad1be2c89b69c2b068fc378daa952ba7f163c4a11628f55a4df523b3ef60405160405180910390a4612829838383612cc7565b505050565b806011908161283d9190614ffb565b5050565b61285b828260405180602001604052806000815250612ccc565b5050565b6000600a60009054906101000a900473ffffffffffffffffffffffffffffffffffffffff16905081600a60006101000a81548173ffffffffffffffffffffffffffffffffffffffff021916908373ffffffffffffffffffffffffffffffffffffffff1602179055508173ffffffffffffffffffffffffffffffffffffffff168173ffffffffffffffffffffffffffffffffffffffff167f8be0079c531659141344cd1fd0a4f28419497f9722a3daafe3b4186f6b6457e060405160405180910390a35050565b8173ffffffffffffffffffffffffffffffffffffffff168373ffffffffffffffffffffffffffffffffffffffff1603612993576040517f08c379a000000000000000000000000000000000000000000000000000000000815260040161298a90615361565b60405180910390fd5b80600560008573ffffffffffffffffffffffffffffffffffffffff1673ffffffffffffffffffffffffffffffffffffffff16815260200190815260200160002060008473ffffffffffffffffffffffffffffffffffffffff1673ffffffffffffffffffffffffffffffffffffffff16815260200190815260200160002060006101000a81548160ff0219169083151502179055508173ffffffffffffffffffffffffffffffffffffffff168373ffffffffffffffffffffffffffffffffffffffff167f17307eab39ab6107e8899845ad3d59bd9653f200f220920489ca2b5937696c3183604051612a84919061387a565b60405180910390a3505050565b60008033604051602001612aa591906153c9565b604051602081830303815290604052805190602001209050612aca8360135483612d27565b915050919050565b612add8484846125c8565b612ae984848484612d3e565b612b28576040517f08c379a0000000000000000000000000000000000000000000000000000000008152600401612b1f90615456565b60405180910390fd5b50505050565b6060612b39826123bd565b612b78576040517f08c379a0000000000000000000000000000000000000000000000000000000008152600401612b6f90614d85565b60405180910390fd5b6000612b82612ec5565b90506000815111612ba25760405180602001604052806000815250612bcd565b80612bac84612f57565b604051602001612bbd929190615476565b6040516020818303038152906040525b915050919050565b60007f80ac58cd000000000000000000000000000000000000000000000000000000007bffffffffffffffffffffffffffffffffffffffffffffffffffffffff1916827bffffffffffffffffffffffffffffffffffffffffffffffffffffffff19161480612ca057507f5b5e139f000000000000000000000000000000000000000000000000000000007bffffffffffffffffffffffffffffffffffffffffffffffffffffffff1916827bffffffffffffffffffffffffffffffffffffffffffffffffffffffff1916145b80612cb05750612caf826130b7565b5b9050919050565b612cc2838383613121565b505050565b505050565b612cd68383613233565b612ce36000848484612d3e565b612d22576040517f08c379a0000000000000000000000000000000000000000000000000000000008152600401612d1990615456565b60405180910390fd5b505050565b600082612d34858461340c565b1490509392505050565b6000612d5f8473ffffffffffffffffffffffffffffffffffffffff16613481565b15612eb8578373ffffffffffffffffffffffffffffffffffffffff1663150b7a02612d88612429565b8786866040518563ffffffff1660e01b8152600401612daa94939291906154ef565b6020604051808303816000875af1925050508015612de657506040513d601f19601f82011682018060405250810190612de39190615550565b60015b612e68573d8060008114612e16576040519150601f19603f3d011682016040523d82523d6000602084013e612e1b565b606091505b506000815103612e60576040517f08c379a0000000000000000000000000000000000000000000000000000000008152600401612e5790615456565b60405180910390fd5b805181602001fd5b63150b7a0260e01b7bffffffffffffffffffffffffffffffffffffffffffffffffffffffff1916817bffffffffffffffffffffffffffffffffffffffffffffffffffffffff191614915050612ebd565b600190505b949350505050565b606060118054612ed490614100565b80601f0160208091040260200160405190810160405280929190818152602001828054612f0090614100565b8015612f4d5780601f10612f2257610100808354040283529160200191612f4d565b820191906000526020600020905b815481529060010190602001808311612f3057829003601f168201915b5050505050905090565b606060008203612f9e576040518060400160405280600181526020017f300000000000000000000000000000000000000000000000000000000000000081525090506130b2565b600082905060005b60008214612fd0578080612fb990614701565b915050600a82612fc99190614541565b9150612fa6565b60008167ffffffffffffffff811115612fec57612feb613c06565b5b6040519080825280601f01601f19166020018201604052801561301e5781602001600182028036833780820191505090505b5090505b600085146130ab576001826130379190614c07565b9150600a85613046919061557d565b603061305291906147db565b60f81b818381518110613068576130676146d2565b5b60200101907effffffffffffffffffffffffffffffffffffffffffffffffffffffffffffff1916908160001a905350600a856130a49190614541565b9450613022565b8093505050505b919050565b60007f01ffc9a7000000000000000000000000000000000000000000000000000000007bffffffffffffffffffffffffffffffffffffffffffffffffffffffff1916827bffffffffffffffffffffffffffffffffffffffffffffffffffffffff1916149050919050565b61312c8383836134a4565b600073ffffffffffffffffffffffffffffffffffffffff168373ffffffffffffffffffffffffffffffffffffffff160361316e57613169816134a9565b6131ad565b8173ffffffffffffffffffffffffffffffffffffffff168373ffffffffffffffffffffffffffffffffffffffff16146131ac576131ab83826134f2565b5b5b600073ffffffffffffffffffffffffffffffffffffffff168273ffffffffffffffffffffffffffffffffffffffff16036131ef576131ea8161365f565b61322e565b8273ffffffffffffffffffffffffffffffffffffffff168273ffffffffffffffffffffffffffffffffffffffff161461322d5761322c8282613730565b5b5b505050565b600073ffffffffffffffffffffffffffffffffffffffff168273ffffffffffffffffffffffffffffffffffffffff16036132a2576040517f08c379a0000000000000000000000000000000000000000000000000000000008152600401613299906155fa565b60405180910390fd5b6132ab816123bd565b156132eb576040517f08c379a00000000000000000000000000000000000000000000000000000000081526004016132e290615666565b60405180910390fd5b6132f760008383612cb7565b6001600360008473ffffffffffffffffffffffffffffffffffffffff1673ffffffffffffffffffffffffffffffffffffffff168152602001908152602001600020600082825461334791906147db565b92505081905550816002600083815260200190815260200160002060006101000a81548173ffffffffffffffffffffffffffffffffffffffff021916908373ffffffffffffffffffffffffffffffffffffffff160217905550808273ffffffffffffffffffffffffffffffffffffffff16600073ffffffffffffffffffffffffffffffffffffffff167fddf252ad1be2c89b69c2b068fc378daa952ba7f163c4a11628f55a4df523b3ef60405160405180910390a461340860008383612cc7565b5050565b60008082905060005b8451811015613476576000858281518110613433576134326146d2565b5b602002602001015190508083116134555761344e83826137af565b9250613462565b61345f81846137af565b92505b50808061346e90614701565b915050613415565b508091505092915050565b6000808273ffffffffffffffffffffffffffffffffffffffff163b119050919050565b505050565b6008805490506009600083815260200190815260200160002081905550600881908060018154018082558091505060019003906000526020600020016000909190919091505550565b600060016134ff846115b4565b6135099190614c07565b90506000600760008481526020019081526020016000205490508181146135ee576000600660008673ffffffffffffffffffffffffffffffffffffffff1673ffffffffffffffffffffffffffffffffffffffff168152602001908152602001600020600084815260200190815260200160002054905080600660008773ffffffffffffffffffffffffffffffffffffffff1673ffffffffffffffffffffffffffffffffffffffff168152602001908152602001600020600084815260200190815260200160002081905550816007600083815260200190815260200160002081905550505b6007600084815260200190815260200160002060009055600660008573ffffffffffffffffffffffffffffffffffffffff1673ffffffffffffffffffffffffffffffffffffffff16815260200190815260200160002060008381526020019081526020016000206000905550505050565b600060016008805490506136739190614c07565b90506000600960008481526020019081526020016000205490506000600883815481106136a3576136a26146d2565b5b9060005260206000200154905080600883815481106136c5576136c46146d2565b5b90600052602060002001819055508160096000838152602001908152602001600020819055506009600085815260200190815260200160002060009055600880548061371457613713615686565b5b6001900381819060005260206000200160009055905550505050565b600061373b836115b4565b905081600660008573ffffffffffffffffffffffffffffffffffffffff1673ffffffffffffffffffffffffffffffffffffffff168152602001908152602001600020600083815260200190815260200160002081905550806007600084815260200190815260200160002081905550505050565b600082600052816020526040600020905092915050565b6000604051905090565b600080fd5b600080fd5b60007fffffffff0000000000000000000000000000000000000000000000000000000082169050919050565b61380f816137da565b811461381a57600080fd5b50565b60008135905061382c81613806565b92915050565b600060208284031215613848576138476137d0565b5b60006138568482850161381d565b91505092915050565b60008115159050919050565b6138748161385f565b82525050565b600060208201905061388f600083018461386b565b92915050565b600081519050919050565b600082825260208201905092915050565b60005b838110156138cf5780820151818401526020810190506138b4565b60008484015250505050565b6000601f19601f8301169050919050565b60006138f782613895565b61390181856138a0565b93506139118185602086016138b1565b61391a816138db565b840191505092915050565b6000602082019050818103600083015261393f81846138ec565b905092915050565b6000819050919050565b61395a81613947565b811461396557600080fd5b50565b60008135905061397781613951565b92915050565b600060208284031215613993576139926137d0565b5b60006139a184828501613968565b91505092915050565b600073ffffffffffffffffffffffffffffffffffffffff82169050919050565b60006139d5826139aa565b9050919050565b6139e5816139ca565b82525050565b6000602082019050613a0060008301846139dc565b92915050565b613a0f816139ca565b8114613a1a57600080fd5b50565b600081359050613a2c81613a06565b92915050565b60008060408385031215613a4957613a486137d0565b5b6000613a5785828601613a1d565b9250506020613a6885828601613968565b9150509250929050565b613a7b81613947565b82525050565b6000602082019050613a966000830184613a72565b92915050565b600060208284031215613ab257613ab16137d0565b5b6000613ac084828501613a1d565b91505092915050565b600080600060608486031215613ae257613ae16137d0565b5b6000613af086828701613a1d565b9350506020613b0186828701613a1d565b9250506040613b1286828701613968565b9150509250925092565b600081519050919050565b600082825260208201905092915050565b6000819050602082019050919050565b613b5181613947565b82525050565b6000613b638383613b48565b60208301905092915050565b6000602082019050919050565b6000613b8782613b1c565b613b918185613b27565b9350613b9c83613b38565b8060005b83811015613bcd578151613bb48882613b57565b9750613bbf83613b6f565b925050600181019050613ba0565b5085935050505092915050565b60006020820190508181036000830152613bf48184613b7c565b905092915050565b600080fd5b600080fd5b7f4e487b7100000000000000000000000000000000000000000000000000000000600052604160045260246000fd5b613c3e826138db565b810181811067ffffffffffffffff82111715613c5d57613c5c613c06565b5b80604052505050565b6000613c706137c6565b9050613c7c8282613c35565b919050565b600067ffffffffffffffff821115613c9c57613c9b613c06565b5b613ca5826138db565b9050602081019050919050565b82818337600083830152505050565b6000613cd4613ccf84613c81565b613c66565b905082815260208101848484011115613cf057613cef613c01565b5b613cfb848285613cb2565b509392505050565b600082601f830112613d1857613d17613bfc565b5b8135613d28848260208601613cc1565b91505092915050565b600060208284031215613d4757613d466137d0565b5b600082013567ffffffffffffffff811115613d6557613d646137d5565b5b613d7184828501613d03565b91505092915050565b613d838161385f565b8114613d8e57600080fd5b50565b600081359050613da081613d7a565b92915050565b60008060408385031215613dbd57613dbc6137d0565b5b6000613dcb85828601613a1d565b9250506020613ddc85828601613d91565b9150509250929050565b600067ffffffffffffffff821115613e0157613e00613c06565b5b602082029050602081019050919050565b600080fd5b6000819050919050565b613e2a81613e17565b8114613e3557600080fd5b50565b600081359050613e4781613e21565b92915050565b6000613e60613e5b84613de6565b613c66565b90508083825260208201905060208402830185811115613e8357613e82613e12565b5b835b81811015613eac5780613e988882613e38565b845260208401935050602081019050613e85565b5050509392505050565b600082601f830112613ecb57613eca613bfc565b5b8135613edb848260208601613e4d565b91505092915050565b60008060408385031215613efb57613efa6137d0565b5b6000613f0985828601613968565b925050602083013567ffffffffffffffff811115613f2a57613f296137d5565b5b613f3685828601613eb6565b9150509250929050565b600067ffffffffffffffff821115613f5b57613f5a613c06565b5b613f64826138db565b9050602081019050919050565b6000613f84613f7f84613f40565b613c66565b905082815260208101848484011115613fa057613f9f613c01565b5b613fab848285613cb2565b509392505050565b600082601f830112613fc857613fc7613bfc565b5b8135613fd8848260208601613f71565b91505092915050565b60008060008060808587031215613ffb57613ffa6137d0565b5b600061400987828801613a1d565b945050602061401a87828801613a1d565b935050604061402b87828801613968565b925050606085013567ffffffffffffffff81111561404c5761404b6137d5565b5b61405887828801613fb3565b91505092959194509250565b60006020828403121561407a576140796137d0565b5b600061408884828501613e38565b91505092915050565b600080604083850312156140a8576140a76137d0565b5b60006140b685828601613a1d565b92505060206140c785828601613a1d565b9150509250929050565b7f4e487b7100000000000000000000000000000000000000000000000000000000600052602260045260246000fd5b6000600282049050600182168061411857607f821691505b60208210810361412b5761412a6140d1565b5b50919050565b7f4552433732313a20617070726f76656420717565727920666f72206e6f6e657860008201527f697374656e7420746f6b656e0000000000000000000000000000000000000000602082015250565b600061418d602c836138a0565b915061419882614131565b604082019050919050565b600060208201905081810360008301526141bc81614180565b9050919050565b7f4552433732313a20617070726f76616c20746f2063757272656e74206f776e6560008201527f7200000000000000000000000000000000000000000000000000000000000000602082015250565b600061421f6021836138a0565b915061422a826141c3565b604082019050919050565b6000602082019050818103600083015261424e81614212565b9050919050565b7f4552433732313a20617070726f76652063616c6c6572206973206e6f74206f7760008201527f6e6572206e6f7220617070726f76656420666f7220616c6c0000000000000000602082015250565b60006142b16038836138a0565b91506142bc82614255565b604082019050919050565b600060208201905081810360008301526142e0816142a4565b9050919050565b7f4552433732313a207472616e736665722063616c6c6572206973206e6f74206f60008201527f776e6572206e6f7220617070726f766564000000000000000000000000000000602082015250565b60006143436031836138a0565b915061434e826142e7565b604082019050919050565b6000602082019050818103600083015261437281614336565b9050919050565b7f4f776e61626c653a2063616c6c6572206973206e6f7420746865206f776e6572600082015250565b60006143af6020836138a0565b91506143ba82614379565b602082019050919050565b600060208201905081810360008301526143de816143a2565b9050919050565b7f455243373231456e756d657261626c653a206f776e657220696e646578206f7560008201527f74206f6620626f756e6473000000000000000000000000000000000000000000602082015250565b6000614441602b836138a0565b915061444c826143e5565b604082019050919050565b6000602082019050818103600083015261447081614434565b9050919050565b7f496e76616c69642073656e646572000000000000000000000000000000000000600082015250565b60006144ad600e836138a0565b91506144b882614477565b602082019050919050565b600060208201905081810360008301526144dc816144a0565b9050919050565b7f4e487b7100000000000000000000000000000000000000000000000000000000600052601260045260246000fd5b7f4e487b7100000000000000000000000000000000000000000000000000000000600052601160045260246000fd5b600061454c82613947565b915061455783613947565b925082614567576145666144e3565b5b828204905092915050565b600061457d82613947565b915061458883613947565b925082820261459681613947565b915082820484148315176145ad576145ac614512565b5b5092915050565b600081905092915050565b50565b60006145cf6000836145b4565b91506145da826145bf565b600082019050919050565b60006145f0826145c2565b9150819050919050565b7f5472616e736665722031206661696c6564000000000000000000000000000000600082015250565b60006146306011836138a0565b915061463b826145fa565b602082019050919050565b6000602082019050818103600083015261465f81614623565b9050919050565b7f5472616e736665722032206661696c6564000000000000000000000000000000600082015250565b600061469c6011836138a0565b91506146a782614666565b602082019050919050565b600060208201905081810360008301526146cb8161468f565b9050919050565b7f4e487b7100000000000000000000000000000000000000000000000000000000600052603260045260246000fd5b600061470c82613947565b91507fffffffffffffffffffffffffffffffffffffffffffffffffffffffffffffffff820361473e5761473d614512565b5b600182019050919050565b7f455243373231456e756d657261626c653a20676c6f62616c20696e646578206f60008201527f7574206f6620626f756e64730000000000000000000000000000000000000000602082015250565b60006147a5602c836138a0565b91506147b082614749565b604082019050919050565b600060208201905081810360008301526147d481614798565b9050919050565b60006147e682613947565b91506147f183613947565b925082820190508082111561480957614808614512565b5b92915050565b7f5468697320616d6f756e74206973206d6f7265207468616e206d617820616c6c60008201527f6f77656400000000000000000000000000000000000000000000000000000000602082015250565b600061486b6024836138a0565b91506148768261480f565b604082019050919050565b6000602082019050818103600083015261489a8161485e565b9050919050565b7f4552433732313a206f776e657220717565727920666f72206e6f6e657869737460008201527f656e7420746f6b656e0000000000000000000000000000000000000000000000602082015250565b60006148fd6029836138a0565b9150614908826148a1565b604082019050919050565b6000602082019050818103600083015261492c816148f0565b9050919050565b7f4552433732313a2062616c616e636520717565727920666f7220746865207a6560008201527f726f206164647265737300000000000000000000000000000000000000000000602082015250565b600061498f602a836138a0565b915061499a82614933565b604082019050919050565b600060208201905081810360008301526149be81614982565b9050919050565b7f41646472657373206e6f742077686974656c6973746564000000000000000000600082015250565b60006149fb6017836138a0565b9150614a06826149c5565b602082019050919050565b60006020820190508181036000830152614a2a816149ee565b9050919050565b7f4e6f207472616e73616374696f6e2066726f6d20736d61727420636f6e74726160008201527f6374732100000000000000000000000000000000000000000000000000000000602082015250565b6000614a8d6024836138a0565b9150614a9882614a31565b604082019050919050565b60006020820190508181036000830152614abc81614a80565b9050919050565b7f53616c65206d7573742062652061637469766520746f206d696e740000000000600082015250565b6000614af9601b836138a0565b9150614b0482614ac3565b602082019050919050565b60006020820190508181036000830152614b2881614aec565b9050919050565b7f4d61782032204e46547320706572207472616e73616374696f6e000000000000600082015250565b6000614b65601a836138a0565b9150614b7082614b2f565b602082019050919050565b60006020820190508181036000830152614b9481614b58565b9050919050565b7f507572636861736520776f756c6420657863656564206d617820737570706c79600082015250565b6000614bd16020836138a0565b9150614bdc82614b9b565b602082019050919050565b60006020820190508181036000830152614c0081614bc4565b9050919050565b6000614c1282613947565b9150614c1d83613947565b9250828203905081811115614c3557614c34614512565b5b92915050565b7f4e6f7420656e6f7567682045544820666f72207472616e73616374696f6e0000600082015250565b6000614c71601e836138a0565b9150614c7c82614c3b565b602082019050919050565b60006020820190508181036000830152614ca081614c64565b9050919050565b7f4d6178204e465420706572206164647265737320657863656564656400000000600082015250565b6000614cdd601c836138a0565b9150614ce882614ca7565b602082019050919050565b60006020820190508181036000830152614d0c81614cd0565b9050919050565b7f4552433732314d657461646174613a2055524920717565727920666f72206e6f60008201527f6e6578697374656e7420746f6b656e0000000000000000000000000000000000602082015250565b6000614d6f602f836138a0565b9150614d7a82614d13565b604082019050919050565b60006020820190508181036000830152614d9e81614d62565b9050919050565b600081905092915050565b6000614dbb82613895565b614dc58185614da5565b9350614dd58185602086016138b1565b80840191505092915050565b7f2e6a736f6e000000000000000000000000000000000000000000000000000000600082015250565b6000614e17600583614da5565b9150614e2282614de1565b600582019050919050565b6000614e398284614db0565b9150614e4482614e0a565b915081905092915050565b60008190508160005260206000209050919050565b60006020601f8301049050919050565b600082821b905092915050565b600060088302614eb17fffffffffffffffffffffffffffffffffffffffffffffffffffffffffffffffff82614e74565b614ebb8683614e74565b95508019841693508086168417925050509392505050565b6000819050919050565b6000614ef8614ef3614eee84613947565b614ed3565b613947565b9050919050565b6000819050919050565b614f1283614edd565b614f26614f1e82614eff565b848454614e81565b825550505050565b600090565b614f3b614f2e565b614f46818484614f09565b505050565b5b81811015614f6a57614f5f600082614f33565b600181019050614f4c565b5050565b601f821115614faf57614f8081614e4f565b614f8984614e64565b81016020851015614f98578190505b614fac614fa485614e64565b830182614f4b565b50505b505050565b600082821c905092915050565b6000614fd260001984600802614fb4565b1980831691505092915050565b6000614feb8383614fc1565b9150826002028217905092915050565b61500482613895565b67ffffffffffffffff81111561501d5761501c613c06565b5b6150278254614100565b615032828285614f6e565b600060209050601f8311600181146150655760008415615053578287015190505b61505d8582614fdf565b8655506150c5565b601f19841661507386614e4f565b60005b8281101561509b57848901518255600182019150602085019450602081019050615076565b868310156150b857848901516150b4601f891682614fc1565b8355505b6001600288020188555050505b505050505050565b7f4f776e61626c653a206e6577206f776e657220697320746865207a65726f206160008201527f6464726573730000000000000000000000000000000000000000000000000000602082015250565b60006151296026836138a0565b9150615134826150cd565b604082019050919050565b600060208201905081810360008301526151588161511c565b9050919050565b7f4552433732313a206f70657261746f7220717565727920666f72206e6f6e657860008201527f697374656e7420746f6b656e0000000000000000000000000000000000000000602082015250565b60006151bb602c836138a0565b91506151c68261515f565b604082019050919050565b600060208201905081810360008301526151ea816151ae565b9050919050565b7f4552433732313a207472616e736665722066726f6d20696e636f72726563742060008201527f6f776e6572000000000000000000000000000000000000000000000000000000602082015250565b600061524d6025836138a0565b9150615258826151f1565b604082019050919050565b6000602082019050818103600083015261527c81615240565b9050919050565b7f4552433732313a207472616e7366657220746f20746865207a65726f2061646460008201527f7265737300000000000000000000000000000000000000000000000000000000602082015250565b60006152df6024836138a0565b91506152ea82615283565b604082019050919050565b6000602082019050818103600083015261530e816152d2565b9050919050565b7f4552433732313a20617070726f766520746f2063616c6c657200000000000000600082015250565b600061534b6019836138a0565b915061535682615315565b602082019050919050565b6000602082019050818103600083015261537a8161533e565b9050919050565b60008160601b9050919050565b600061539982615381565b9050919050565b60006153ab8261538e565b9050919050565b6153c36153be826139ca565b6153a0565b82525050565b60006153d582846153b2565b60148201915081905092915050565b7f4552433732313a207472616e7366657220746f206e6f6e20455243373231526560008201527f63656976657220696d706c656d656e7465720000000000000000000000000000602082015250565b60006154406032836138a0565b915061544b826153e4565b604082019050919050565b6000602082019050818103600083015261546f81615433565b9050919050565b60006154828285614db0565b915061548e8284614db0565b91508190509392505050565b600081519050919050565b600082825260208201905092915050565b60006154c18261549a565b6154cb81856154a5565b93506154db8185602086016138b1565b6154e4816138db565b840191505092915050565b600060808201905061550460008301876139dc565b61551160208301866139dc565b61551e6040830185613a72565b818103606083015261553081846154b6565b905095945050505050565b60008151905061554a81613806565b92915050565b600060208284031215615566576155656137d0565b5b60006155748482850161553b565b91505092915050565b600061558882613947565b915061559383613947565b9250826155a3576155a26144e3565b5b828206905092915050565b7f4552433732313a206d696e7420746f20746865207a65726f2061646472657373600082015250565b60006155e46020836138a0565b91506155ef826155ae565b602082019050919050565b60006020820190508181036000830152615613816155d7565b9050919050565b7f4552433732313a20746f6b656e20616c7265616479206d696e74656400000000600082015250565b6000615650601c836138a0565b915061565b8261561a565b602082019050919050565b6000602082019050818103600083015261567f81615643565b9050919050565b7f4e487b7100000000000000000000000000000000000000000000000000000000600052603160045260246000fdfea26469706673582212201383b36f674eeac5b3fa46e364689b752ae418ae61cedf8c69dd30bdc9abc21e64736f6c63430008110033",
  "linkReferences": {},
  "deployedLinkReferences": {}
}